HDRF202410281036451635PS     LH   LUMINAREHEALTH MAVENMAVEN          PDR000202410281036451635202410281036451635202410281036451635                                                                                                                                                                                                                                                                                                   
DTLTPID123456789                                     PDRSP000   LH   LUMINAREHEALTH MAVENMAVEN          OhioHealthy                   OHH000017113        19850929KATIE           ALLEN               F1AQ0010                        AQ0010         11223344556677              P20240201202410281036451635D+0000010000+0000000000+0000000000+0000007500+0000000000+0000000000NNNN00000000000000002                                
DTLTPID123456799                                     PDRSF000   LH   LUMINAREHEALTH MAVENMAVEN          OhioHealthy                   OHH000017113        19850929KATIE           ALLEN               F1AQ0010                        AQ0010         11223344556678              P20240203202410301036451635D+0000010000+0000000000+0000000000+0000007500+0000000000+0000000000NNNN00000000000000002                                
TRL+00000000750000000001                                                                                                                                                                                                                                                                                                                                                                                                            
