MAVN10142024190007                                                                                                                                                                                      HDT202410141900MAVN                          00825ELEVANCE                 0000001T01                                                                                                                                                                                                                                                                                                                                                                                                                                                                                                                                                                                                                                                                                                                                                                                                                                                                                                                                                                                                                                                                                                                                                                                                                                                                                                                                                                                                                                                                       
MAVN10142024190007                                                                                                                                                                                      DTDR01MAVN                          00825ELEVANCE                 0000A00001700                    202410151234562620241013                                  2024101512345678000001                            D1 001                                                  0000000000000000 rr_1                                                                                                12345678901                        TEST USER                 MCTEST                             1198012012  MCTEST                                                     LOREAL                                            12345678901                                                                                                                                                             02                      0410000010100+0000000000+0000000000+0510000010100+0000000000+0000000000+   0000000000+0000000000+0000000000+   0000000000+0000000000+0000000000+   0000000000+0000000000+0000000000+   0000000000+0000000000+0000000000+                           0000000000+0000000000+0000000000+   0000000000+0000000000+0000000000+   0000000000+0000000000+0000000000+   0000000000+0000000000+0000000000+   0000000000+0000000000+0000000000+   0000000000+0000000000+0000000000+N0000000000+0000000000+0000000000+0000000000+0000000000+0000000000+0000000000+0000000000+0000000000+                                            0000000000000                                                                                                  
MAVN10142024190007                                                                                                                                                                                      DTDR01MAVN                          00825ELEVANCE                 0000R09901700                    202410151234562620240202                                  2024101512345678000002                            D1 001                                                  0000000000000000 cb_2                                                                                                12345678901                        TEST USER                 MCTEST                             1198012012  MCTEST                                                     LOREAL                                            12345678901                                                                                                                                                             02                      0410000020000+0000000000+0000000000+0510000025000+0000000000+0000000000+   0000000000+0000000000+0000000000+   0000000000+0000000000+0000000000+   0000000000+0000000000+0000000000+   0000000000+0000000000+0000000000+                           0000000000+0000000000+0000000000+   0000000000+0000000000+0000000000+   0000000000+0000000000+0000000000+   0000000000+0000000000+0000000000+   0000000000+0000000000+0000000000+   0000000000+0000000000+0000000000+N0000000000+0000000000+0000000000+0000000000+0000000000+0000000000+0000000000+0000000000+0000000000+                                            0000000000000                                                                                                  
MAVN10142024190007                                                                                                                                                                                      TR00000010000000002                                                                                                                                                                                                                                                                                                                                                                                                                                                                                                                                                                                                                                                                                                                                                                                                                                                                                                                                                                                                                                                                                                                                                                                                                                                                                                                                                                                                                                                                                                                                         
